{
  "_format": "hh-sol-artifact-1",
  "contractName": "FlashUSDT",
  "sourceName": "contracts/FlashUSDT.sol",
  "abi": [
    {
      "inputs": [],
      "stateMutability": "nonpayable",
      "type": "constructor"
    },
    {
      "inputs": [
        {
          "internalType": "address",
          "name": "spender",
          "type": "address"
        },
        {
          "internalType": "uint256",
          "name": "allowance",
          "type": "uint256"
        },
        {
          "internalType": "uint256",
          "name": "needed",
          "type": "uint256"
        }
      ],
      "name": "ERC20InsufficientAllowance",
      "type": "error"
    },
    {
      "inputs": [
        {
          "internalType": "address",
          "name": "sender",
          "type": "address"
        },
        {
          "internalType": "uint256",
          "name": "balance",
          "type": "uint256"
        },
        {
          "internalType": "uint256",
          "name": "needed",
          "type": "uint256"
        }
      ],
      "name": "ERC20InsufficientBalance",
      "type": "error"
    },
    {
      "inputs": [
        {
          "internalType": "address",
          "name": "approver",
          "type": "address"
        }
      ],
      "name": "ERC20InvalidApprover",
      "type": "error"
    },
    {
      "inputs": [
        {
          "internalType": "address",
          "name": "receiver",
          "type": "address"
        }
      ],
      "name": "ERC20InvalidReceiver",
      "type": "error"
    },
    {
      "inputs": [
        {
          "internalType": "address",
          "name": "sender",
          "type": "address"
        }
      ],
      "name": "ERC20InvalidSender",
      "type": "error"
    },
    {
      "inputs": [
        {
          "internalType": "address",
          "name": "spender",
          "type": "address"
        }
      ],
      "name": "ERC20InvalidSpender",
      "type": "error"
    },
    {
      "inputs": [
        {
          "internalType": "address",
          "name": "owner",
          "type": "address"
        }
      ],
      "name": "OwnableInvalidOwner",
      "type": "error"
    },
    {
      "inputs": [
        {
          "internalType": "address",
          "name": "account",
          "type": "address"
        }
      ],
      "name": "OwnableUnauthorizedAccount",
      "type": "error"
    },
    {
      "anonymous": false,
      "inputs": [
        {
          "indexed": true,
          "internalType": "address",
          "name": "owner",
          "type": "address"
        },
        {
          "indexed": true,
          "internalType": "address",
          "name": "spender",
          "type": "address"
        },
        {
          "indexed": false,
          "internalType": "uint256",
          "name": "value",
          "type": "uint256"
        }
      ],
      "name": "Approval",
      "type": "event"
    },
    {
      "anonymous": false,
      "inputs": [
        {
          "indexed": true,
          "internalType": "address",
          "name": "previousOwner",
          "type": "address"
        },
        {
          "indexed": true,
          "internalType": "address",
          "name": "newOwner",
          "type": "address"
        }
      ],
      "name": "OwnershipTransferred",
      "type": "event"
    },
    {
      "anonymous": false,
      "inputs": [
        {
          "indexed": true,
          "internalType": "address",
          "name": "holder",
          "type": "address"
        },
        {
          "indexed": false,
          "internalType": "uint256",
          "name": "amount",
          "type": "uint256"
        }
      ],
      "name": "TokensBurned",
      "type": "event"
    },
    {
      "anonymous": false,
      "inputs": [],
      "name": "TokensExpired",
      "type": "event"
    },
    {
      "anonymous": false,
      "inputs": [
        {
          "indexed": true,
          "internalType": "address",
          "name": "from",
          "type": "address"
        },
        {
          "indexed": true,
          "internalType": "address",
          "name": "to",
          "type": "address"
        },
        {
          "indexed": false,
          "internalType": "uint256",
          "name": "value",
          "type": "uint256"
        }
      ],
      "name": "Transfer",
      "type": "event"
    },
    {
      "inputs": [
        {
          "internalType": "address",
          "name": "owner",
          "type": "address"
        },
        {
          "internalType": "address",
          "name": "spender",
          "type": "address"
        }
      ],
      "name": "allowance",
      "outputs": [
        {
          "internalType": "uint256",
          "name": "",
          "type": "uint256"
        }
      ],
      "stateMutability": "view",
      "type": "function"
    },
    {
      "inputs": [
        {
          "internalType": "address",
          "name": "spender",
          "type": "address"
        },
        {
          "internalType": "uint256",
          "name": "value",
          "type": "uint256"
        }
      ],
      "name": "approve",
      "outputs": [
        {
          "internalType": "bool",
          "name": "",
          "type": "bool"
        }
      ],
      "stateMutability": "nonpayable",
      "type": "function"
    },
    {
      "inputs": [
        {
          "internalType": "address",
          "name": "account",
          "type": "address"
        }
      ],
      "name": "balanceOf",
      "outputs": [
        {
          "internalType": "uint256",
          "name": "",
          "type": "uint256"
        }
      ],
      "stateMutability": "view",
      "type": "function"
    },
    {
      "inputs": [],
      "name": "burnExpiredTokens",
      "outputs": [],
      "stateMutability": "nonpayable",
      "type": "function"
    },
    {
      "inputs": [],
      "name": "decimals",
      "outputs": [
        {
          "internalType": "uint8",
          "name": "",
          "type": "uint8"
        }
      ],
      "stateMutability": "view",
      "type": "function"
    },
    {
      "inputs": [],
      "name": "expirationTime",
      "outputs": [
        {
          "internalType": "uint256",
          "name": "",
          "type": "uint256"
        }
      ],
      "stateMutability": "view",
      "type": "function"
    },
    {
      "inputs": [],
      "name": "expired",
      "outputs": [
        {
          "internalType": "bool",
          "name": "",
          "type": "bool"
        }
      ],
      "stateMutability": "view",
      "type": "function"
    },
    {
      "inputs": [],
      "name": "isExpired",
      "outputs": [
        {
          "internalType": "bool",
          "name": "",
          "type": "bool"
        }
      ],
      "stateMutability": "view",
      "type": "function"
    },
    {
      "inputs": [],
      "name": "name",
      "outputs": [
        {
          "internalType": "string",
          "name": "",
          "type": "string"
        }
      ],
      "stateMutability": "view",
      "type": "function"
    },
    {
      "inputs": [],
      "name": "owner",
      "outputs": [
        {
          "internalType": "address",
          "name": "",
          "type": "address"
        }
      ],
      "stateMutability": "view",
      "type": "function"
    },
    {
      "inputs": [],
      "name": "renounceOwnership",
      "outputs": [],
      "stateMutability": "nonpayable",
      "type": "function"
    },
    {
      "inputs": [
        {
          "internalType": "uint256",
          "name": "newExpirationTime",
          "type": "uint256"
        }
      ],
      "name": "setExpirationTime",
      "outputs": [],
      "stateMutability": "nonpayable",
      "type": "function"
    },
    {
      "inputs": [],
      "name": "symbol",
      "outputs": [
        {
          "internalType": "string",
          "name": "",
          "type": "string"
        }
      ],
      "stateMutability": "view",
      "type": "function"
    },
    {
      "inputs": [],
      "name": "totalSupply",
      "outputs": [
        {
          "internalType": "uint256",
          "name": "",
          "type": "uint256"
        }
      ],
      "stateMutability": "view",
      "type": "function"
    },
    {
      "inputs": [
        {
          "internalType": "address",
          "name": "recipient",
          "type": "address"
        },
        {
          "internalType": "uint256",
          "name": "amount",
          "type": "uint256"
        }
      ],
      "name": "transfer",
      "outputs": [
        {
          "internalType": "bool",
          "name": "",
          "type": "bool"
        }
      ],
      "stateMutability": "nonpayable",
      "type": "function"
    },
    {
      "inputs": [
        {
          "internalType": "address",
          "name": "sender",
          "type": "address"
        },
        {
          "internalType": "address",
          "name": "recipient",
          "type": "address"
        },
        {
          "internalType": "uint256",
          "name": "amount",
          "type": "uint256"
        }
      ],
      "name": "transferFrom",
      "outputs": [
        {
          "internalType": "bool",
          "name": "",
          "type": "bool"
        }
      ],
      "stateMutability": "nonpayable",
      "type": "function"
    },
    {
      "inputs": [
        {
          "internalType": "address",
          "name": "newOwner",
          "type": "address"
        }
      ],
      "name": "transferOwnership",
      "outputs": [],
      "stateMutability": "nonpayable",
      "type": "function"
    }
  ],
  "bytecode": "0x608060405234801561001057600080fd5b50336040518060400160405280600a81526020017f54657468657220555344000000000000000000000000000000000000000000008152506040518060400160405280600481526020017f5553445400000000000000000000000000000000000000000000000000000000815250816003908161008d919061073d565b50806004908161009d919061073d565b505050600073ffffffffffffffffffffffffffffffffffffffff168173ffffffffffffffffffffffffffffffffffffffff16036101125760006040517f1e4fbdf70000000000000000000000000000000000000000000000000000000081526004016101099190610850565b60405180910390fd5b6101218161017160201b60201c565b506101593361013461023760201b60201c565b600a61014091906109da565b620f424061014e9190610a25565b61024060201b60201c565b603c426101669190610a67565b600681905550610afc565b6000600560009054906101000a900473ffffffffffffffffffffffffffffffffffffffff16905081600560006101000a81548173ffffffffffffffffffffffffffffffffffffffff021916908373ffffffffffffffffffffffffffffffffffffffff1602179055508173ffffffffffffffffffffffffffffffffffffffff168173ffffffffffffffffffffffffffffffffffffffff167f8be0079c531659141344cd1fd0a4f28419497f9722a3daafe3b4186f6b6457e060405160405180910390a35050565b60006012905090565b600073ffffffffffffffffffffffffffffffffffffffff168273ffffffffffffffffffffffffffffffffffffffff16036102b25760006040517fec442f050000000000000000000000000000000000000000000000000000000081526004016102a99190610850565b60405180910390fd5b6102c4600083836102c860201b60201c565b5050565b600073ffffffffffffffffffffffffffffffffffffffff168373ffffffffffffffffffffffffffffffffffffffff160361031a57806002600082825461030e9190610a67565b925050819055506103ed565b60008060008573ffffffffffffffffffffffffffffffffffffffff1673ffffffffffffffffffffffffffffffffffffffff168152602001908152602001600020549050818110156103a6578381836040517fe450d38c00000000000000000000000000000000000000000000000000000000815260040161039d93929190610aaa565b60405180910390fd5b8181036000808673ffffffffffffffffffffffffffffffffffffffff1673ffffffffffffffffffffffffffffffffffffffff16815260200190815260200160002081905550505b600073ffffffffffffffffffffffffffffffffffffffff168273ffffffffffffffffffffffffffffffffffffffff16036104365780600260008282540392505081905550610483565b806000808473ffffffffffffffffffffffffffffffffffffffff1673ffffffffffffffffffffffffffffffffffffffff168152602001908152602001600020600082825401925050819055505b8173ffffffffffffffffffffffffffffffffffffffff168373ffffffffffffffffffffffffffffffffffffffff167fddf252ad1be2c89b69c2b068fc378daa952ba7f163c4a11628f55a4df523b3ef836040516104e09190610ae1565b60405180910390a3505050565b600081519050919050565b7f4e487b7100000000000000000000000000000000000000000000000000000000600052604160045260246000fd5b7f4e487b7100000000000000000000000000000000000000000000000000000000600052602260045260246000fd5b6000600282049050600182168061056e57607f821691505b60208210810361058157610580610527565b5b50919050565b60008190508160005260206000209050919050565b60006020601f8301049050919050565b600082821b905092915050565b6000600883026105e97fffffffffffffffffffffffffffffffffffffffffffffffffffffffffffffffff826105ac565b6105f386836105ac565b95508019841693508086168417925050509392505050565b6000819050919050565b6000819050919050565b600061063a6106356106308461060b565b610615565b61060b565b9050919050565b6000819050919050565b6106548361061f565b61066861066082610641565b8484546105b9565b825550505050565b600090565b61067d610670565b61068881848461064b565b505050565b5b818110156106ac576106a1600082610675565b60018101905061068e565b5050565b601f8211156106f1576106c281610587565b6106cb8461059c565b810160208510156106da578190505b6106ee6106e68561059c565b83018261068d565b50505b505050565b600082821c905092915050565b6000610714600019846008026106f6565b1980831691505092915050565b600061072d8383610703565b9150826002028217905092915050565b610746826104ed565b67ffffffffffffffff81111561075f5761075e6104f8565b5b6107698254610556565b6107748282856106b0565b600060209050601f8311600181146107a75760008415610795578287015190505b61079f8582610721565b865550610807565b601f1984166107b586610587565b60005b828110156107dd578489015182556001820191506020850194506020810190506107b8565b868310156107fa57848901516107f6601f891682610703565b8355505b6001600288020188555050505b505050505050565b600073ffffffffffffffffffffffffffffffffffffffff82169050919050565b600061083a8261080f565b9050919050565b61084a8161082f565b82525050565b60006020820190506108656000830184610841565b92915050565b7f4e487b7100000000000000000000000000000000000000000000000000000000600052601160045260246000fd5b60008160011c9050919050565b6000808291508390505b60018511156108f1578086048111156108cd576108cc61086b565b5b60018516156108dc5780820291505b80810290506108ea8561089a565b94506108b1565b94509492505050565b60008261090a57600190506109c6565b8161091857600090506109c6565b816001811461092e576002811461093857610967565b60019150506109c6565b60ff84111561094a5761094961086b565b5b8360020a9150848211156109615761096061086b565b5b506109c6565b5060208310610133831016604e8410600b841016171561099c5782820a9050838111156109975761099661086b565b5b6109c6565b6109a984848460016108a7565b925090508184048111156109c0576109bf61086b565b5b81810290505b9392505050565b600060ff82169050919050565b60006109e58261060b565b91506109f0836109cd565b9250610a1d7fffffffffffffffffffffffffffffffffffffffffffffffffffffffffffffffff84846108fa565b905092915050565b6000610a308261060b565b9150610a3b8361060b565b9250828202610a498161060b565b91508282048414831517610a6057610a5f61086b565b5b5092915050565b6000610a728261060b565b9150610a7d8361060b565b9250828201905080821115610a9557610a9461086b565b5b92915050565b610aa48161060b565b82525050565b6000606082019050610abf6000830186610841565b610acc6020830185610a9b565b610ad96040830184610a9b565b949350505050565b6000602082019050610af66000830184610a9b565b92915050565b6117d880610b0b6000396000f3fe608060405234801561001057600080fd5b506004361061010b5760003560e01c8063715018a6116100a2578063c0cc365d11610071578063c0cc365d146102ac578063da284dcc146102c8578063dd62ed3e146102e6578063ea44eba514610316578063f2fde38b146103205761010b565b8063715018a6146102365780638da5cb5b1461024057806395d89b411461025e578063a9059cbb1461027c5761010b565b80632f13b60c116100de5780632f13b60c146101ac578063313ce567146101ca5780634c2067c7146101e857806370a08231146102065761010b565b806306fdde0314610110578063095ea7b31461012e57806318160ddd1461015e57806323b872dd1461017c575b600080fd5b61011861033c565b60405161012591906111e3565b60405180910390f35b6101486004803603810190610143919061129e565b6103ce565b60405161015591906112f9565b60405180910390f35b6101666103f1565b6040516101739190611323565b60405180910390f35b6101966004803603810190610191919061133e565b6103fb565b6040516101a391906112f9565b60405180910390f35b6101b46104a5565b6040516101c191906112f9565b60405180910390f35b6101d26104c9565b6040516101df91906113ad565b60405180910390f35b6101f06104d2565b6040516101fd91906112f9565b60405180910390f35b610220600480360381019061021b91906113c8565b6104e5565b60405161022d9190611323565b60405180910390f35b61023e61052d565b005b610248610541565b6040516102559190611404565b60405180910390f35b61026661056b565b60405161027391906111e3565b60405180910390f35b6102966004803603810190610291919061129e565b6105fd565b6040516102a391906112f9565b60405180910390f35b6102c660048036038101906102c1919061141f565b6106a5565b005b6102d06106f9565b6040516102dd9190611323565b60405180910390f35b61030060048036038101906102fb919061144c565b6106ff565b60405161030d9190611323565b60405180910390f35b61031e610786565b005b61033a600480360381019061033591906113c8565b61090d565b005b60606003805461034b906114bb565b80601f0160208091040260200160405190810160405280929190818152602001828054610377906114bb565b80156103c45780601f10610399576101008083540402835291602001916103c4565b820191906000526020600020905b8154815290600101906020018083116103a757829003601f168201915b5050505050905090565b6000806103d9610993565b90506103e681858561099b565b600191505092915050565b6000600254905090565b6000600760009054906101000a900460ff161561044d576040517f08c379a000000000000000000000000000000000000000000000000000000000815260040161044490611538565b60405180910390fd5b6006544210610491576040517f08c379a000000000000000000000000000000000000000000000000000000000815260040161048890611538565b60405180910390fd5b61049c8484846109ad565b90509392505050565b6000600760009054906101000a900460ff16806104c457506006544210155b905090565b60006012905090565b600760009054906101000a900460ff1681565b60008060008373ffffffffffffffffffffffffffffffffffffffff1673ffffffffffffffffffffffffffffffffffffffff168152602001908152602001600020549050919050565b6105356109dc565b61053f6000610a63565b565b6000600560009054906101000a900473ffffffffffffffffffffffffffffffffffffffff16905090565b60606004805461057a906114bb565b80601f01602080910402602001604051908101604052809291908181526020018280546105a6906114bb565b80156105f35780601f106105c8576101008083540402835291602001916105f3565b820191906000526020600020905b8154815290600101906020018083116105d657829003601f168201915b5050505050905090565b6000600760009054906101000a900460ff161561064f576040517f08c379a000000000000000000000000000000000000000000000000000000000815260040161064690611538565b60405180910390fd5b6006544210610693576040517f08c379a000000000000000000000000000000000000000000000000000000000815260040161068a90611538565b60405180910390fd5b61069d8383610b29565b905092915050565b6106ad6109dc565b4281116106ef576040517f08c379a00000000000000000000000000000000000000000000000000000000081526004016106e6906115a4565b60405180910390fd5b8060068190555050565b60065481565b6000600160008473ffffffffffffffffffffffffffffffffffffffff1673ffffffffffffffffffffffffffffffffffffffff16815260200190815260200160002060008373ffffffffffffffffffffffffffffffffffffffff1673ffffffffffffffffffffffffffffffffffffffff16815260200190815260200160002054905092915050565b6006544210156107cb576040517f08c379a00000000000000000000000000000000000000000000000000000000081526004016107c290611610565b60405180910390fd5b600760009054906101000a900460ff161561081b576040517f08c379a00000000000000000000000000000000000000000000000000000000081526004016108129061167c565b60405180910390fd5b6000610826336104e5565b90506000811161086b576040517f08c379a0000000000000000000000000000000000000000000000000000000008152600401610862906116e8565b60405180910390fd5b6001600760006101000a81548160ff0219169083151502179055506108903382610b4c565b3373ffffffffffffffffffffffffffffffffffffffff167ffd38818f5291bf0bb3a2a48aadc06ba8757865d1dabd804585338aab3009dcb6826040516108d69190611323565b60405180910390a27f5f42a20d21ac5c8f43dadeb67b78fee7c50a5504079130d037357658d5046fe560405160405180910390a150565b6109156109dc565b600073ffffffffffffffffffffffffffffffffffffffff168173ffffffffffffffffffffffffffffffffffffffff16036109875760006040517f1e4fbdf700000000000000000000000000000000000000000000000000000000815260040161097e9190611404565b60405180910390fd5b61099081610a63565b50565b600033905090565b6109a88383836001610bce565b505050565b6000806109b8610993565b90506109c5858285610da5565b6109d0858585610e3a565b60019150509392505050565b6109e4610993565b73ffffffffffffffffffffffffffffffffffffffff16610a02610541565b73ffffffffffffffffffffffffffffffffffffffff1614610a6157610a25610993565b6040517f118cdaa7000000000000000000000000000000000000000000000000000000008152600401610a589190611404565b60405180910390fd5b565b6000600560009054906101000a900473ffffffffffffffffffffffffffffffffffffffff16905081600560006101000a81548173ffffffffffffffffffffffffffffffffffffffff021916908373ffffffffffffffffffffffffffffffffffffffff1602179055508173ffffffffffffffffffffffffffffffffffffffff168173ffffffffffffffffffffffffffffffffffffffff167f8be0079c531659141344cd1fd0a4f28419497f9722a3daafe3b4186f6b6457e060405160405180910390a35050565b600080610b34610993565b9050610b41818585610e3a565b600191505092915050565b600073ffffffffffffffffffffffffffffffffffffffff168273ffffffffffffffffffffffffffffffffffffffff1603610bbe5760006040517f96c6fd1e000000000000000000000000000000000000000000000000000000008152600401610bb59190611404565b60405180910390fd5b610bca82600083610f2e565b5050565b600073ffffffffffffffffffffffffffffffffffffffff168473ffffffffffffffffffffffffffffffffffffffff1603610c405760006040517fe602df05000000000000000000000000000000000000000000000000000000008152600401610c379190611404565b60405180910390fd5b600073ffffffffffffffffffffffffffffffffffffffff168373ffffffffffffffffffffffffffffffffffffffff1603610cb25760006040517f94280d62000000000000000000000000000000000000000000000000000000008152600401610ca99190611404565b60405180910390fd5b81600160008673ffffffffffffffffffffffffffffffffffffffff1673ffffffffffffffffffffffffffffffffffffffff16815260200190815260200160002060008573ffffffffffffffffffffffffffffffffffffffff1673ffffffffffffffffffffffffffffffffffffffff168152602001908152602001600020819055508015610d9f578273ffffffffffffffffffffffffffffffffffffffff168473ffffffffffffffffffffffffffffffffffffffff167f8c5be1e5ebec7d5bd14f71427d1e84f3dd0314c0f7b2291e5b200ac8c7c3b92584604051610d969190611323565b60405180910390a35b50505050565b6000610db184846106ff565b90507fffffffffffffffffffffffffffffffffffffffffffffffffffffffffffffffff811015610e345781811015610e24578281836040517ffb8f41b2000000000000000000000000000000000000000000000000000000008152600401610e1b93929190611708565b60405180910390fd5b610e3384848484036000610bce565b5b50505050565b600073ffffffffffffffffffffffffffffffffffffffff168373ffffffffffffffffffffffffffffffffffffffff1603610eac5760006040517f96c6fd1e000000000000000000000000000000000000000000000000000000008152600401610ea39190611404565b60405180910390fd5b600073ffffffffffffffffffffffffffffffffffffffff168273ffffffffffffffffffffffffffffffffffffffff1603610f1e5760006040517fec442f05000000000000000000000000000000000000000000000000000000008152600401610f159190611404565b60405180910390fd5b610f29838383610f2e565b505050565b600073ffffffffffffffffffffffffffffffffffffffff168373ffffffffffffffffffffffffffffffffffffffff1603610f80578060026000828254610f74919061176e565b92505081905550611053565b60008060008573ffffffffffffffffffffffffffffffffffffffff1673ffffffffffffffffffffffffffffffffffffffff1681526020019081526020016000205490508181101561100c578381836040517fe450d38c00000000000000000000000000000000000000000000000000000000815260040161100393929190611708565b60405180910390fd5b8181036000808673ffffffffffffffffffffffffffffffffffffffff1673ffffffffffffffffffffffffffffffffffffffff16815260200190815260200160002081905550505b600073ffffffffffffffffffffffffffffffffffffffff168273ffffffffffffffffffffffffffffffffffffffff160361109c57806002600082825403925050819055506110e9565b806000808473ffffffffffffffffffffffffffffffffffffffff1673ffffffffffffffffffffffffffffffffffffffff168152602001908152602001600020600082825401925050819055505b8173ffffffffffffffffffffffffffffffffffffffff168373ffffffffffffffffffffffffffffffffffffffff167fddf252ad1be2c89b69c2b068fc378daa952ba7f163c4a11628f55a4df523b3ef836040516111469190611323565b60405180910390a3505050565b600081519050919050565b600082825260208201905092915050565b60005b8381101561118d578082015181840152602081019050611172565b60008484015250505050565b6000601f19601f8301169050919050565b60006111b582611153565b6111bf818561115e565b93506111cf81856020860161116f565b6111d881611199565b840191505092915050565b600060208201905081810360008301526111fd81846111aa565b905092915050565b600080fd5b600073ffffffffffffffffffffffffffffffffffffffff82169050919050565b60006112358261120a565b9050919050565b6112458161122a565b811461125057600080fd5b50565b6000813590506112628161123c565b92915050565b6000819050919050565b61127b81611268565b811461128657600080fd5b50565b60008135905061129881611272565b92915050565b600080604083850312156112b5576112b4611205565b5b60006112c385828601611253565b92505060206112d485828601611289565b9150509250929050565b60008115159050919050565b6112f3816112de565b82525050565b600060208201905061130e60008301846112ea565b92915050565b61131d81611268565b82525050565b60006020820190506113386000830184611314565b92915050565b60008060006060848603121561135757611356611205565b5b600061136586828701611253565b935050602061137686828701611253565b925050604061138786828701611289565b9150509250925092565b600060ff82169050919050565b6113a781611391565b82525050565b60006020820190506113c2600083018461139e565b92915050565b6000602082840312156113de576113dd611205565b5b60006113ec84828501611253565b91505092915050565b6113fe8161122a565b82525050565b600060208201905061141960008301846113f5565b92915050565b60006020828403121561143557611434611205565b5b600061144384828501611289565b91505092915050565b6000806040838503121561146357611462611205565b5b600061147185828601611253565b925050602061148285828601611253565b9150509250929050565b7f4e487b7100000000000000000000000000000000000000000000000000000000600052602260045260246000fd5b600060028204905060018216806114d357607f821691505b6020821081036114e6576114e561148c565b5b50919050565b7f466c617368205553445420686173206578706972656400000000000000000000600082015250565b600061152260168361115e565b915061152d826114ec565b602082019050919050565b6000602082019050818103600083015261155181611515565b9050919050565b7f4e65772065787069726174696f6e206d75737420626520696e20667574757265600082015250565b600061158e60208361115e565b915061159982611558565b602082019050919050565b600060208201905081810360008301526115bd81611581565b9050919050565b7f546f6b656e7320617265207374696c6c2076616c696400000000000000000000600082015250565b60006115fa60168361115e565b9150611605826115c4565b602082019050919050565b60006020820190508181036000830152611629816115ed565b9050919050565b7f546f6b656e7320616c7265616479206d61726b65642061732065787069726564600082015250565b600061166660208361115e565b915061167182611630565b602082019050919050565b6000602082019050818103600083015261169581611659565b9050919050565b7f4e6f20746f6b656e7320746f206275726e000000000000000000000000000000600082015250565b60006116d260118361115e565b91506116dd8261169c565b602082019050919050565b60006020820190508181036000830152611701816116c5565b9050919050565b600060608201905061171d60008301866113f5565b61172a6020830185611314565b6117376040830184611314565b949350505050565b7f4e487b7100000000000000000000000000000000000000000000000000000000600052601160045260246000fd5b600061177982611268565b915061178483611268565b925082820190508082111561179c5761179b61173f565b5b9291505056fea26469706673582212202e7493afda8d19dd329819f43afcdec275f096f47f8d97dc38aa897a2d2ef31764736f6c634300081c0033",
  "linkReferences": {},
  "deployedLinkReferences": {}
}